:100000000C945C000C9479000C9479000C947900A9
:100010000C9479000C9479000C9479000C9479007C
:100020000C9479000C9479000C9479000C9479006C
:100030000C9479000C9479000C9479000C9479005C
:100040000C94C8000C9479000C9479000C947900FD
:100050000C9479000C9479000C9479000C9479003C
:100060000C9479000C947900000000080002010053
:100070000003040700000000000000000102040863
:100080001020408001020408102001020408102002
:10009000040404040404040402020202020203032E
:1000A0000303030300000000250028002B000000CC
:1000B0000000240027002A0011241FBECFEFD8E043
:1000C000DEBFCDBF11E0A0E0B1E0EAE8F4E002C09D
:1000D00005900D92AA30B107D9F721E0AAE0B1E06E
:1000E00001C01D92A331B207E1F70E94B9000C9440
:1000F00043020C94000061E0809108010E94D70146
:1001000061E0809106010E94D70161E080910401C5
:100110000E94D70161E0809102010E94D70161E055
:10012000809100010C94D701CF93C8E061E08C2F3F
:100130000E94130268E270E080E090E00E943701C4
:10014000CF5FCD3099F7CCE060E08C2F0E94130296
:1001500068EC70E080E090E00E943701C150C73049
:1001600099F760E971E080E090E0CF910C9437015D
:1001700008950E9473010E94B8000E947B00C0E0B5
:10018000D0E00E9494002097E1F30E940000F9CF94
:100190001F920F920FB60F9211242F933F938F93BC
:1001A0009F93AF93BF9380910B0190910C01A0910D
:1001B0000D01B0910E0130910A0123E0230F2D377C
:1001C00020F40196A11DB11D05C026E8230F02965B
:1001D000A11DB11D20930A0180930B0190930C0186
:1001E000A0930D01B0930E0180910F019091100129
:1001F000A0911101B09112010196A11DB11D809332
:100200000F0190931001A0931101B0931201BF91BF
:10021000AF919F918F913F912F910F900FBE0F90B3
:100220001F9018953FB7F89480910F01909110019D
:10023000A0911101B091120126B5A89B05C02F3FD6
:1002400019F00196A11DB11D3FBFBA2FA92F982FFC
:100250008827820F911DA11DB11DBC01CD0142E077
:10026000660F771F881F991F4A95D1F708958F92BF
:100270009F92AF92BF92CF92DF92EF92FF926B016B
:100280007C010E9412014B015C01C114D104E10404
:10029000F10401F10E9442020E941201DC01CB0133
:1002A00088199909AA09BB09883E9340A105B1059F
:1002B00060F321E0C21AD108E108F10888EE880E47
:1002C00083E0981EA11CB11CC114D104E104F10407
:1002D00019F7DBCFFF90EF90DF90CF90BF90AF90FA
:1002E0009F908F900895789484B5826084BD84B582
:1002F000816084BD85B5826085BD85B5816085BD21
:10030000EEE6F0E0808181608083E1E8F0E0108239
:10031000808182608083808181608083E0E8F0E07A
:10032000808181608083E1EBF0E080818460808364
:10033000E0EBF0E0808181608083EAE7F0E080819B
:1003400084608083808182608083808181608083FB
:100350008081806880831092C1000895833081F08D
:1003600028F4813099F08230A1F008958730A9F007
:100370008830B9F08430D1F4809180008F7D03C043
:10038000809180008F7780938000089584B58F7767
:1003900002C084B58F7D84BD08958091B0008F77B1
:1003A00003C08091B0008F7D8093B0000895CF93FB
:1003B000DF9390E0FC01E458FF4F2491FC01E057EB
:1003C000FF4F8491882361F190E0880F991FFC0111
:1003D000E255FF4FC591D491FC01EC55FF4FA5911B
:1003E000B491611109C09FB7F89488812095822348
:1003F0008883EC912E230BC0623061F49FB7F89490
:100400008881322F309583238883EC912E2B2C9377
:100410009FBF06C08FB7F894E8812E2B28838FBF2B
:10042000DF91CF9108951F93CF93DF93282F30E072
:10043000F901E859FF4F8491F901E458FF4FD49135
:10044000F901E057FF4FC491CC23C1F0162F811161
:100450000E94AE01EC2FF0E0EE0FFF1FEC55FF4FB6
:10046000A591B4919FB7F894111104C08C91D095C7
:10047000D82302C0EC91DE2BDC939FBFDF91CF919C
:0A0480001F9108950895F894FFCF2E
:0A048A00080009000A000B000C0036
:00000001FF
